:020000040000FA
:040000000CEF00F011
:1000070001FACFF3F5AEEF02F0FFFF1200FFFFFD9D
:10001700D705EE8CF015EED9F05EEC1BF000EE4440
:10002700F011EEA0F05EEC1BF000EE0FF010EE32D8
:10003700F05EEC1BF005EE8BF015EE8CF0070EF67C
:100047006E000EF76E000EF86EF8EC02F0C2EF0AC3
:10005700F0026A016A006AE950EA1006E002C0EDA0
:10006700FF01C0EDFF00C0EFFF000CF800FFFF0429
:10007700000001480EFD6F000EFE6FEDEC12F00060
:1000870001480EFD6F000EFE6F550EFF6F31EC132A
:10009700F08CEC12F00001480EFD6F000EFE6F9B16
:1000A700C5FFF031EC13F08CEC12F0F8C04AF0F910
:1000B700C04BF00001FA6B04000001480EFD6F0011
:1000C7000EFE6F4AC0E9FF4BC0EAFF00014A4B4BE7
:1000D7002BEF500001FF6F31EC13F08CEC12F000A6
:1000E70001FA2B1F0EFA65E7D748C0FBF049C0FCA1
:1000F700F035EF14F0FFFFBBD7FFFF9EBA9DAAE7CD
:10010700D19CEC12F0E8CF9AF59AC5E8FFEA0AD835
:10011700A40BD0FA0EB1EC17F0AECF9AF59AC5E85A
:10012700FFEA0AD8A4D0D1FF009AC5E8FF550AD83C
:10013700B4ABB4C9D1ABB2C7D105019753D8A4C3E7
:10014700D19CEC12F0E8CF9BF5ABA4ABB2BCD105C8
:10015700019753D8A4B8D19BC5E8FF030A01E1D89A
:10016700D0130A0DE0510A01E17ED1030A01E193A0
:10017700D1070A01E16AD1030A01E16ED1A4D102D4
:100187000EE8CF98F516D09CEC12F0006E98C5E8F3
:10019700FF05EE9AF0E926000EEA2200C0EFFFAB5A
:1001A700A4ABB291D105019753D8A48DD104000512
:1001B70001982B060E05019865E6D7070EE8CF983C
:1001C700F5090EA0C502F0036A0226000E03229865
:1001D700C500F0016A0150800A046E0350800A04CA
:1001E7005C02E10250005CD8B017D09CEC12F00022
:1001F7006E98C5E8FF05EE9AF0E926000EEA2200A0
:10020700C0EFFFABA4ABB25FD105019753D8A45B96
:10021700D104000501982BD4D700019A0EF86F0579
:100227000EF96FA0C5E8FF070FFA6FC1EC13F000D6
:100237006E00C002F0036A03500210D8B444D1071D
:100247000EE8CF99F59DC598F59DC5E8FFA0C502B5
:10025700F0036A0226000E032298C500F0016A0126
:1002670050800A046E0350800A045C02E1025000C9
:100277005CD8B023D065EC1BF098C5A9FF99C5E8F9
:10028700FF05EE9AF0E926000EEA22EF50A86E3F2E
:100297000EA616D890F2BED880F29EA684550EA759
:1002A7006EAA0EA76EA682A198A694D8B0F28E0465
:1002B700000501992B0501982BC7D70001480EFDB2
:1002C7006F000EFE6FEDEC12F00501986B15D00074
:1002D70001480EFD6F000EFE6F98C5E8FF05EE9A08
:1002E700F0E926000EEA22EF50FF6F31EC13F08C95
:1002F700EC12F004000501982B050E05019865E73F
:10030700D748C0FBF049C0FCF035EC14F00F84DB94
:10031700D0020EE8CF98F516D09CEC12F0006E983C
:10032700C5E8FF05EE9AF0E926000EEA2200C0EFC5
:10033700FFABA4ABB2C8D005019753D8A4C4D0046F
:10034700000501982B070E05019865E6D704000004
:10035700019A0EF86F050EF96F060EFA6FC1EC13CE
:10036700F0006E00C002F0036A03500210D8B466B2
:10037700D00001480EFD6F000EFE6FEDEC12F0008D
:1003870001480EFD6F000EFE6F550EFF6F31EC1327
:10039700F08CEC12F00001480EFD6F000EFE6F03AB
:1003A7000EFF6F31EC13F08CEC12F005EE9FF0D8D6
:1003B70090EF360001480EFD6F000EFE6F9FC5FFE0
:1003C700F031EC13F08CEC12F09DC598F59DC5E863
:1003D700FF9FC502F0036A0226000E032298C5009C
:1003E700F0016A0150800A046E0350800A045C021F
:0A03F700E10250005CD8B022D0658E
:10040100EC1BF098C5A9FFF2AE02D0D88001D0D87C
:1004110090F29E3F0EA616A680A850A96EF29ED815
:10042100B0F28EA9CF99F50001480EFD6F000EFEC6
:100431006F99C5FFF031EC13F08CEC12F0050198C7
:100441002BC8D748C0FBF049C0FCF035EC14F03E96
:10045100D00001B20EF86F000EF96F0BDE37D0003D
:1004610001920EF86F000EF96F04DE30D0000148E2
:100471000EFD6F000EFE6F550EFF6F31EC13F08C09
:10048100EC12F00001480EFD6F000EFE6F410EFFF1
:100491006F31EC13F08CEC12F00F8617D00001488D
:1004A1000EFD6F000EFE6F550EFF6F31EC13F08CD9
:1004B100EC12F00001480EFD6F000EFE6F420EFFC0
:1004C1006F31EC13F08CEC12F00F960F889E9AAB03
:1004D100980400AB88F2B4F2AA07D0D768ED0ED623
:1004E1006EF2942DEC17F00400D9C5F3FFDAC5F4D0
:1004F100FFDBC5F5FFDCC5F6FFDDC5F7FFDEC50097
:10050100F0DFC501F0E0C502F0E1C503F0E2C5048A
:10051100F0E3C505F0E4C506F0E5C507F0E6C5085A
:10052100F0E7C509F0E8C50AF0E9C50BF0EAC50C2A
:10053100F0EBC50DF0ECC50EF0EDC5DAFFEEC5D957
:10054100FFEFC5E2FFF0C5E1FFF1C5EAFFF2C5E942
:10055100FFF3C5FAFF1100FFFFD3D5FFFFE9CFF28B
:10056100F5EACFF1F5E1CFF0F5E2CFEFF5D9CFEE36
:10057100F5DACFEDF50EC0ECF50DC0EBF50CC0EAE8
:10058100F50BC0E9F50AC0E8F509C0E7F508C0E6D2
:10059100F507C0E5F506C0E4F505C0E3F504C0E2E2
:1005A100F503C0E1F502C0E0F501C0DFF500C0DEF2
:1005B100F5F7CFDDF5F6CFDCF5F5CFDBF5F4CFDAE6
:1005C100F5F3CFD9F59CD5016A026A036A00AE033F
:1005D100EF1BF001060206030603EF1BF00E6A0192
:1005E1006A026A036A0FEF1BF00900F5CFEEFFEA1A
:0E05F10050E262FAD7E950E162F7D71200003B
:10060000398EE33D398E633EABAAAA3E0609090640
:1006100080808080808001030589FF808084FE7F48
:10062000FE8480800025734000545249544F4E2070
:100630003530303800446563203137203230313670
:10064000005425732000205665722E2000563D254B
:10065000732020004C3D25732525202000533D2587
:10066000732020202000FFFF929092929294E8A0A5
:1006700002D0898001D08990E8A202D0898201D07D
:100680008992E8A402D0898401D089941200FFFFE6
:10069000EBD7FFFFFA0E9CEC17F0FA0E9CEC17F06C
:1006A000B9EC14F0010E83EC14F091EC15F0010E8E
:1006B0009CEC17F0B9EC14F0010E83EC14F0010E71
:1006C0000001D46F040EDAEC14F00001290ED46F8F
:1006D000060ED56F22EC15F0020E0001D46F010E4C
:1006E000DAEC14F00001460ED46F060ED56F22EC42
:1006F00015F00001350ED46F060ED56F22EC15F003
:10070000C2EC16F0FFFF000E0FB2010E0CEC17F05A
:100710000F920001C40ED46F050ED56F00EED6F017
:10072000C2C0EEFFC3C0EEFFC4C0EEFFC5C0EEFF07
:10073000020EDA6FDB6F03EC0FF00001AF0ED66F25
:10074000050ED76F250ED86F060ED96FC40ED26F67
:10075000050ED36FD20EE8CFD4F0000EE8CFD5F05F
:100760004DEC0BF00001D46B000EDAEC14F000013C
:10077000AF0ED46F050ED56F50EC15F00001C40E0E
:10078000D46F050ED56F00EED6F0C6C0EEFFC7C021
:10079000EEFFC8C0EEFFC9C0EEFF020EDA6FDB6FDE
:1007A00003EC0FF00001AF0ED66F050ED76F250ECC
:1007B000D86F060ED96FC40ED26F050ED36FD20E4E
:1007C000E8CFD4F0000EE8CFD5F04DEC0BF00001EF
:1007D000D46B080EDAEC14F00001AF0ED46F050EE6
:1007E000D56F50EC15F00001C40ED46F050ED56F17
:1007F00000EED6F0CAC0EEFFCBC0EEFFCCC0EEFFDD
:10080000CDC0EEFF020EDA6FDB6F03EC0FF00001DC
:10081000AF0ED66F050ED76F250ED86F060ED96FA7
:10082000C40ED26F050ED36FD20EE8CFD4F0000EF7
:10083000E8CFD5F04DEC0BF0010E0001D46F000EA7
:10084000DAEC14F00001AF0ED46F050ED56F50EC4A
:1008500015F00001C40ED46F050ED56F00EED6F072
:10086000B2C0EEFFB3C0EEFFB4C0EEFFB5C0EEFF06
:10087000020EDA6FDB6F03EC0FF00001AF0ED66FE4
:10088000050ED76F250ED86F060ED96FC40ED26F26
:10089000050ED36FD20EE8CFD4F0000EE8CFD5F01E
:1008A0004DEC0BF0010E0001D46F080EDAEC14F0E1
:1008B0000001AF0ED46F050ED56F50EC15F000019E
:1008C000C40ED46F050ED56F00EED6F07EC0EEFFDD
:1008D0007FC0EEFF80C0EEFF81C0EEFF020EDA6F38
:1008E000DB6F03EC0FF00001AF0ED66F050ED76F74
:1008F0005D0ED86F060ED96FC40ED26F050ED36F82
:10090000D20EE8CFD4F0000EE8CFD5F04DEC0BF0CE
:10091000020E0001D46F000EDAEC14F00001AF0EED
:10092000D46F050ED56F50EC15F00001C40ED46FD6
:10093000050ED56F00EED6F07AC0EEFF7BC0EEFF5D
:100940007CC0EEFF7DC0EEFF030EDA6F010EDB6FA1
:1009500003EC0FF00001AF0ED66F050ED76F540EEB
:10096000D86F060ED96FC40ED26F050ED36FD20E9C
:10097000E8CFD4F0000EE8CFD5F04DEC0BF0020E2E
:100980000001D46F080EDAEC14F00001AF0ED46F42
:10099000050ED56F50EC15F00001C40ED46F050E96
:1009A000D56F00EED6F08EC0EEFF8FC0EEFF90C088
:1009B000EEFF91C0EEFF020EDA6FDB6F03EC0FF07B
:1009C0000001AF0ED66F050ED76F4D0ED86F060E15
:1009D000D96FC40ED26F050ED36FD20EE8CFD4F00C
:1009E000000EE8CFD5F04DEC0BF0030E0001D46FF4
:1009F000000EDAEC14F00001AF0ED46F050ED56FC7
:100A000050EC15F00001C40ED46F050ED56F00EE4A
:100A1000D6F082C0EEFF83C0EEFF84C0EEFF85C03B
:100A2000EEFF030EDA6F020EDB6F03EC0FF0000136
:100A3000AF0ED66F050ED76F410ED86F060ED96F69
:100A4000C40ED26F050ED36FD20EE8CFD4F0000ED5
:100A5000E8CFD5F04DEC0BF0030E0001D46F080E7B
:100A6000DAEC14F00001AF0ED46F050ED56F50EC28
:100A700015F0ABB402D0ABA243D6AB50D96EAB509D
:100A8000D96EAB86AB98AB883BD6FFFF03D6FFFF92
:100A9000C2EC16F0FFFF000E0FB4010E0CEC17F0C5
:100AA0000F94F6D7FFFFF4D7FFFF0001D66F006A5F
:100AB000016A026A036A540EF36FF46B8A0EF56FD3
:100AC000000EF66F040EF76F8FEC19F000EE4EF08B
:100AD00000018A51EE1808E18B51EE1805E18C51A6
:100AE000EE1802E18D51EE18D8B40BD0010E0001C2
:100AF000D66F8AC04EF08BC04FF08CC050F08DC0C6
:100B000051F06A0E0001F36FF46B860EF56F000E64
:100B1000F66F040EF76F8FEC19F000EE52F0000143
:100B20008651EE1808E18751EE1805E18851EE185C
:100B300002E18951EE18D8B40BD0010E0001D66F36
:100B400086C052F087C053F088C054F089C055F079
:100B5000660E0001F36FF46B8E0EF56F000EF66FEC
:100B6000040EF76F8FEC19F000EE56F000018E5175
:100B7000EE1808E18F51EE1805E19051EE1802E1F0
:100B80009151EE18D8B46BD0010E0001D66F8EC013
:100B900056F08FC057F090C058F091C059F076C011
:100BA00082F077C083F078C084F079C085F0046A61
:100BB000056A700E066E420E076E8EC000F08FC082
:100BC00001F090C002F091C003F001EC1AF000C0F7
:100BD0005AF001C05BF002C05CF003C05DF086C05B
:100BE00004F087C005F088C006F089C007F082C015
:100BF00000F083C001F084C002F085C003F038EC3F
:100C000018F000C004F001C005F002C006F003C0F7
:100C100007F0000E006A016A026A036AD5EC1AF056
:100C2000D8B00BD0046A056A800E066EBF0E076E40
:100C300000EE5AF053EC1BF012D05AC000F05BC02B
:100C400001F05CC002F05DC003F06BEC1BF000C073
:100C50005AF001C05BF002C05CF003C05DF000EE32
:100C60008EF0EE50EE10EE10EE10D8A42ED000EE66
:100C70008AF0EE50EE10EE10EE10D8A403D0010E64
:100C80000001D66F8AC082F08BC083F08CC084F0E4
:100C90008DC085F072C004F073C005F074C006F01A
:100CA00075C007F076C000F077C001F078C002F0A0
:100CB00079C003F038EC18F000C0D7F001C0D8F0CC
:100CC00002C0D9F003C0DAF056D086C004F087C065
:100CD00005F088C006F089C007F082C000F083C02C
:100CE00001F084C002F085C003F038EC18F000C0B9
:100CF00000F001C001F002C002F003C003F06BEC91
:100D00001BF000C004F001C005F002C006F003C0F3
:100D100007F0006A016A026A400E036ED5EC1AF011
:100D2000D8A005D000015A6B5B6B5C6B5D6B00EE6D
:100D30005AF0EE50EE10EE10EE10D8A408D086C097
:100D400082F087C083F088C084F089C085F05AC0E3
:100D500004F05BC005F05CC006F05DC007F000EE7B
:100D600082F021EC1BF076C0D7F077C0D8F078C0C5
:100D7000D9F079C0DAF00001D651D8B40FD0000113
:100D80005E6B5F6B606B616B7E6B7F6B806B816B8F
:100D9000000E006A016A026A036A8BD1D7C004F0B0
:100DA000D8C005F0D9C006F0DAC007F082C000F064
:100DB00083C001F084C002F085C003F038EC18F065
:100DC00000C0E7F001C0E8F002C0E9F003C0EAF0BB
:100DD000E7C004F0E8C005F0E9C006F0EAC007F09B
:100DE000006A016A026A400E036ED5EC1AF0D8B0B0
:100DF00006D00001E76BE86BE96B400EEA6F046A0E
:100E0000056A066AC00E076EE7C000F0E8C001F090
:100E1000E9C002F0EAC003F0D5EC1AF0D8B006D071
:100E20000001E76BE86BE96BC00EEA6F480E00014A
:100E3000F36FF46BE30EF56F000EF66F040EF76FB1
:100E40008FEC19F04C0E0001F36FF46BDF0EF56FB1
:100E5000000EF66F040EF76F8FEC19F0500E0001C4
:100E6000F36FF46BDB0EF56F000EF66F040EF76F89
:100E70008FEC19F0DFC004F0E0C005F0E1C006F02F
:100E8000E2C007F0E7C000F0E8C001F0E9C002F0FE
:100E9000EAC003F0BBEC18F000C004F001C005F09C
:100EA00002C006F003C007F000EE7EF021EC1BF05C
:100EB0007EC004F07FC005F080C006F081C007F05E
:100EC000006A016A800E026E3F0E036ED5EC1AF0C6
:100ED000D8B007D000013F0E816F800E806F7F6B0E
:100EE0007E6B046A056A800E066EBF0E076E7EC0BA
:100EF00000F07FC001F080C002F081C003F0D5ECAB
:100F00001AF0D8B008D00001BF0E816F800E806F3C
:100F1000000E7F6B7E6B5EC004F05FC005F060C0AA
:100F200006F061C007F0E7C000F0E8C001F0E9C0DA
:100F300002F0EAC003F038EC18F0DBC004F0DCC0CB
:100F400005F0DDC006F0DEC007F0BBEC18F000C015
:100F5000EFF001C0F0F002C0F1F003C0F2F0E7C022
:100F600004F0E8C005F0E9C006F0EAC007F0E3C00D
:100F700000F0E4C001F0E5C002F0E6C003F0BBEC15
:100F800018F0EFC004F0F0C005F0F1C006F0F2C0B8
:100F900007F03AEC18F07EC004F07FC005F080C086
:100FA00006F081C007F03AEC18F000C0EBF001C089
:100FB000ECF002C0EDF003C0EEF0E7C05EF0E8C078
:100FC0005FF0E9C060F0EAC061F0EBC004F0ECC093
:100FD00005F0EDC006F0EEC007F0CD0E006ECC0EB1
:100FE000016E4C0E026E3F0E036ED5EC1AF0D8B0B7
:100FF00009D00001CD0EEB6FCC0EEC6F4C0EED6FF7
:101000003F0EEE6FCD0E046ECC0E056E4C0E066ECE
:10101000BF0E076EEBC000F0ECC001F0EDC002F0B7
:10102000EEC003F0D5EC1AF0D8B009D00001CD0E17
:10103000EB6FCC0EEC6F4C0EED6FBF0EEE6FEBC096
:1010400004F0ECC005F0EDC006F0EEC007F0006A59
:10105000016A800E026E3F0E036ED5EC1AF0D8B016
:1010600007D00001EB6BEC6B800EED6F3F0EEE6F67
:10107000046A056A800E066EBF0E076EEBC000F0B4
:10108000ECC001F0EDC002F0EEC003F0D5EC1AF0B8
:10109000D8B007D00001EB6BEC6B800EED6FBF0E8C
:1010A000EE6FEBC000F0ECC001F0EDC002F0EEC05E
:1010B00003F01200FFFFF9D4D600FFFFD6C004F002
:1010C000D7C005F0D8C006F0D9C007F0006A016AA1
:1010D000C80E026E420E036EBBEC18F000C07AF030
:1010E00001C07BF002C07CF003C07DF0D6C004F0EC
:1010F000D7C005F0D8C006F0D9C007F0000E006ACE
:10110000016A026A036AD5EC1AF0D8B022D0D6C0C0
:1011100004F0D7C005F0D8C006F0D9C007F0006AC7
:10112000C00E016E7F0E026E440E036EBBEC18F013
:1011300090EC1AF000C0F6FF01C0F7FFBA6A0F0E7C
:10114000BD6E8B92F6CFDAF0F7CFDBF02EEC10F01D
:1011500035D00001D9AF2ED0BD6A0F0EBA6E046A29
:10116000056A800E066EBF0E076ED60EE96E000E83
:10117000EA6E53EC1BF0D6C004F0D7C005F0D8C01F
:1011800006F0D9C007F0006AC00E016E7F0E026E35
:10119000440E036EBBEC18F090EC1AF000C0F6FFA2
:1011A00001C0F7FF8B94F6CFDAF0F7CFDBF051EC0C
:1011B00010F004D0BD6ABA6A8B948B921200FFFFC4
:1011C0007DD7FFFFCB687E0ECA6E0001D66BD76B52
:1011D000D86BD96B72DF8B928B94949294940001AC
:1011E000E80ED66F030ED76FDCEC16F0B5EC16F0F8
:1011F000FFFF0FA80AD00F988B920001DA6BDB6B10
:101200002EEC10F0010E50DCEAD70FA614D0000E21
:101210004BDC00C0D2F001C0D3F002C0D4F003C058
:10122000D5F0D2C0D6F0D3C0D7F0D4C0D8F0D5C056
:10123000D9F043DFD4D70001D66BD76BD86BD96B0D
:101240003CDF010E31DCCBD7FFFFBCD7FFFF000E28
:1012500033EC03F0DBEC15F06A0E56EC16F06A0E78
:1012600056EC16F0C2EC16F0FFFF000E0FB0010EA8
:101270000CEC17F00F90ACC5E8FF33EC03F00F82D5
:101280000F80FA0E0001D66FD76BDCEC16F0B5ECD0
:1012900016F0FFFF2A0E56EC16F000C062F001C0F7
:1012A00063F002C064F003C065F00001F36BF46BFF
:1012B000660EF56F000EF66F040EF76F8FEC19F0E7
:1012C000040E0001F36FF46B6A0EF56F000EF66FFB
:1012D000040EF76F8FEC19F066C004F067C005F0DC
:1012E00068C006F069C007F000EE62F053EC1BF036
:1012F0006AC004F06BC005F06CC006F06DC007F06A
:1013000000EE62F021EC1BF0ACC500F0016AD89051
:1013100000360136D89000360136280E0024000130
:10132000F36F000E0120F46F6A0EF56F000EF66F7A
:10133000040EF76F8FEC19F0ACC500F0016AD8907D
:1013400000360136D89000360136080E0024000120
:10135000F36F000E0120F46F6E0EF56F000EF66F46
:10136000040EF76F8FEC19F06EC004F06FC005F03B
:1013700070C006F071C007F000EE62F053EC1BF095
:101380006AC004F06BC005F06CC006F06DC007F0D9
:1013900000EE62F021EC1BF00001620ED26F000E35
:1013A000D36FACC5D4F08BC5D5F09BEC10F0FBEC43
:1013B00016F0E8CFABF5ACC5E8FF040D920EF324B0
:1013C000E96E000EF420EA6E62C0EEFF63C0EEFF2D
:1013D00064C0EEFF65C0EEFFABC5E8FF03EC17F09D
:1013E00062C004F063C005F064C006F065C007F099
:1013F000006A016A200E026E410E036EBBEC18F00B
:1014000000C0D2F001C0D3F002C0D4F003C0D5F0C8
:10141000020E0001D66F580E9EEC0EF000C062F076
:1014200001C063F002C064F003C065F0FBEC16F08D
:10143000E8CFABF5ACC5E8FF040DB20EF324E96EBE
:10144000000EF420EA6E62C0EEFF63C0EEFF64C0DF
:10145000EEFF65C0EEFFABC5E8FF03EC17F0640ECE
:101460000001F36FF46B4C0EF56F000EF66F020E79
:10147000F76F8FEC19F00501AC2B070EAC17AC53CE
:10148000D8A402D005018B6BACC502F0010E006E32
:10149000016A022A03D0D89000360136022EFBD70B
:1014A0004CC0E8FF0014026E4DC0E8FF0114036E4B
:1014B00003500210D8B4DFD70501AD6B0001766B85
:1014C000776B786B796B0501AE6B33D0AEC502F0EC
:1014D000040E0226010E006E016A022A03D0D89083
:1014E00000360136022EFBD74CC0E8FF0014026E16
:1014F0004DC0E8FF0114036E03500210D8B417D09A
:10150000AEC5E8FF040DC20EF324E96E000EF42010
:10151000EA6EEECF04F0EECF05F0EECF06F0EECFA0
:1015200007F000EE76F021EC1BF00501AD2B050174
:10153000AE2B020E0501AE65C9D70501AD53D8A487
:1015400006D00001766B776B786B796B10D0ADC5E8
:1015500000F0EFEC02F000C004F001C005F002C0A2
:1015600006F003C007F000EE76F049EC1BF0B2C0C5
:1015700072F0B3C073F0B4C074F0B5C075F072D639
:10158000FFFF65D6FFFF896AC26A060EC16E8A6ACE
:101590008B6A0400896A806AC26A060EC16EE00E18
:1015A000926E936AF19E960E946EE80E966E956A10
:1015B000C76A310EC66E860ED56E82EC12F0F28CC2
:1015C000AC8A9D8A9F8AD08EF184F28AF28421ECC3
:1015D00017F08E0E0001D26F0A0ED36FD46BD56B4D
:1015E000000E47EC17F0920E0001D26F060ED36F7B
:1015F000D46BD56B000E47EC17F04C0E0001D26F88
:10160000120ED36FD46BD56B000E47EC17F0C20EE1
:101610000001D26F110ED36FD46BD56B000E47EC67
:1016200017F00F840F800F920F96F28ED0BEF28CBF
:10163000136A290E106403D0150E106E02D0070E27
:1016400010261050E96EEA6AEF50126E12BC12BEFC
:10165000EFD712B812BA01D0EBD7A8EC16F0D6EC3F
:1016600016F0D70EEF16280E1214EF12E1D7EA008B
:10167000FFFFEAC0F6FFEBC0F7FF050EF76404D0EA
:101680000800FFFFF55005D0F6CFE9FFF7CFEAFFDE
:10169000EF501200FFFFEDD7D400FFFF0001E06B19
:1016A000E16BD4C0DEF0D5C0DFF00001D851EA6FA5
:1016B000D951EB6FD84BD92BDBDF0001DD6FDD514A
:1016C000D8B4D2D20001DD51250AD8B40BD0E04BFA
:1016D000E12BD751D611D8A4B8D10001DD5108ECC7
:1016E00000F0E3D70001DA69DC6BDB6B73D2000139
:1016F000D751D611D8A4BDD2C2D2DEC0E9FFDFC017
:10170000EAFF0001020EDE27000EDF23EF509ED21B
:101710000001DB8D5FD20001DB8F5CD2100E05D0A3
:10172000080E03D00001DB2B0A0E0001DA6FDEC0C9
:10173000E9FFDFC0EAFFDBAF0DD0040EDE27000EAD
:10174000DF23EECFE2F0EECFE3F0EECFE4F0EECF2A
:10175000E5F015D00001020EDE27000EDF23EECFEC
:1017600000F0EDCF01F001BEFF0E026E036E00C06F
:10177000E2F001C0E3F002C0E4F003C0E5F00001D4
:10178000DBA124D0E5AF1DD0E2C000F0E3C001F042
:10179000E4C002F0E5C003F0001E011E021E031E9D
:1017A000002AD8B4012AD8B4022AD8B4032A00C027
:1017B000E2F001C0E3F002C0E4F003C0E5F0DC07B2
:1017C0000FD00001DB91DBAD0BD0F9D70001DBBFFF
:1017D00005D0E251E351E36FE46BE56B0001DB916F
:1017E000DAC004F0056A066A076AE2C000F0E3C0E6
:1017F00001F0E4C002F0E5C003F060EC18F0045022
:101800000001DD6FDAC004F0056A066A076AE20EBD
:10181000E96E000EEA6E35EC1BF0010EE66FE76B29
:10182000E86BE96B0001E951E55D08E1E851E45D31
:1018300005E1E751E35D02E1E651E25DD8A00ED09B
:10184000DAC004F0056A066A076AE60EE96E000E61
:10185000EA6E3FEC1BF00001DC07E4D70001DBA9D6
:1018600014D01AD00001E04BE12BD751D611D8B4D7
:1018700009D0D6C0E9FFD7C0EAFF200EEF6ED64BE5
:10188000D72B03D0200E08EC00F00001DC07DC5160
:10189000800A7F0FD8B0E6D70001DBA113D0E04B60
:1018A000E12BD751D611D8B409D0D6C0E9FFD7C0A3
:1018B000EAFF2D0EEF6ED64BD72B16D02D0E08EC6F
:1018C00000F012D00001DBAD0FD0E04BE12BD7517F
:1018D000D611D8B406D0D6C0E9FFD7C0EAFF2B0E88
:1018E000E9D72B0E08EC00F00001DBB914D054D07E
:1018F0000001E04BE12BD751D611D8B409D0D6C0A6
:10190000E9FFD7C0EAFF300EEF6ED64BD72B03D0DE
:10191000300E08EC00F00001DC07DC51800A7F0F7C
:10192000D8A03AD0E5D7E6C004F0E7C005F0E8C09B
:1019300006F0E9C007F0E2C000F0E3C001F0E4C047
:1019400002F0E5C003F060EC18F0DAC004F0056ABC
:10195000066A076A60EC18F004500001DC6FDC5185
:10196000800A760FD8A002D0070EDC270001E04BDA
:10197000E12BD751D611D8B40AD0DC51300FD6C0E4
:10198000E9FFD7C0EAFFEF6ED64BD72B05D0000199
:10199000DC51300F08EC00F0DAC004F0056A066A8A
:1019A000076AE60EE96E000EEA6E35EC1BF0035096
:1019B000001001100210D8A4B6D7090E0001DD6591
:1019C00002D0070EDD270001E04BE12BD751D611E5
:1019D000D8B408D0DD51300FD6C0E9FFD7C0EAFF38
:1019E000EF6E39D00001DD51300F08EC00F05DD60C
:1019F0000001DC51800A7E0FD8A016D00001E04B18
:101A0000E12BD751D611D8B409D0D6C0E9FFD7C041
:101A1000EAFF200EEF6ED64BD72B03D0200E08EC3A
:101A200000F00001DC07E4D7DEC0E9FFDFC0EAFF19
:101A30000001020EDE27000EDF23EF50DD6FE04BCA
:101A4000E12BD751D611D8B409D0D6C0E9FFD7C001
:101A5000EAFFDDC0EFFFD64BD72B27D60001DD51C3
:101A600008EC00F022D6DEC0E9FFDFC0EAFF00018B
:101A7000020EDE27000EDF23EECF00F0EDCF01F0E7
:101A800000C044F001C045F0D96A44C000F045C030
:101A900001F0D9500024026E000E0120036E02C036
:101AA000F6FF03C0F7FF050EF76404D00800FFFF40
:101AB000F55005D0F6CFE9FFF7CFEAFFEF50000968
:101AC000D8B402D0D92AE1D70001DA51D96002D0C6
:101AD000D950DA6F0001DA51DCBF3ED0FF0ADC25B5
:101AE0000001D8A03AD0E04BE12BD751D611D8B4A1
:101AF00009D0D6C0E9FFD7C0EAFF200EEF6ED64B63
:101B0000D72B03D0200E08EC00F00001DC07E2D751
:101B1000000144C000F045C001F00028446F02E11C
:101B20000128456F00C0EAF001C0EBF0A1DD000123
:101B3000DD6FE04BE12BD751D611D8B409D0D6C018
:101B4000E9FFD7C0EAFFDDC0EFFFD64BD72B04D0AB
:101B50000001DD5108EC00F00001DA07DA29D8B401
:101B6000A4D5D6D7D8C0EAF0D9C0EBF081DD2A0AD7
:101B7000D8A40ED0DEC0E9FFDFC0EAFF0001020EEC
:101B8000DE27000EDF23EF50DA6FD84BD92B22D09F
:101B90000001D851EA6FD951EB6FD84BD92B68DDD2
:101BA000D00F0001DA6FD8C0EAF0D9C0EBF060DDE9
:101BB000D96E2F0ED9640ED03A0ED9600BD0000129
:101BC000DA510A0DD950F324D00FDED70001DBB56E
:101BD00030D0DB890001D851EA6FD951EB6FD84B77
:101BE000D92B46DD0001DD6FDD5101E180D52A0AE8
:101BF00001E183D5010A01E18BD5050AB3E01E0A94
:101C0000E5E0680A01E18AD53B0A01E1F1D6070A5D
:101C100001E188D5080A01E17ED5030A01E180D5FA
:101C20001C0A01E120D7060A01E17ED50D0A01E177
:101C300075D52F0E0001DD650BD03A0EDD6108D0A1
:101C4000DB85DC510A0DDD51F324D00FDC6FC2D7E8
:101C50000001E04BE12BD751D611D8A4F6D60001F4
:101C6000DD5108EC00F021D50001D751D611D8B4D0
:101C700006D0D6C0E9FFD7C0EAFF000EEF6AE0C089
:101C800000F0E1C001F01200FFFF08D5E100FFFF06
:101C90000001E36FE1C0E5F0E2C0E6F0E46B65EC63
:101CA0001BF00001E351A96EE32BF2AE02D0D88005
:101CB00001D0D890F29E3F0EA616A680A850A96E1D
:101CC000F29ED8B0F28EE5C0E9FFE6C0EAFFA9CFE8
:101CD000EFFFE54BE62BE42B030EE465E0D71200A3
:101CE000FFFFD6D7E100FFFF0001000EE66FE76FB0
:101CF000800EE86F3F0EE96FE551D8B413D0E1C014
:101D000004F0E2C005F0E3C006F0E4C007F0E60E20
:101D1000E96E000EEA6E53EC1BF00001E507E55199
:101D2000D8A4EDD7E6C000F0E7C001F0E8C002F0AB
:101D3000E9C003F01200FFFFD7D7D200FFFF000178
:101D4000D76FDD6BDE6BDF6BE06BD86B0001D90EFC
:101D5000E16F000EE26FD7519ADFD2C0E1F0D3C03D
:101D6000E2F0D4C0E3F0D5C0E4F00001D851E56F53
:101D7000BADFD9C004F0DAC005F0DBC006F0DCC081
:101D800007F0BBEC18F000C004F001C005F002C081
:101D900006F003C007F0DD0EE96E000EEA6E21ECDE
:101DA0001BF0040E0001D727D82BD805006ED651A2
:101DB000005CD8A0CBD7DDC000F0DEC001F0DFC0F2
:101DC00002F0E0C003F01200FFFFB9D7D200FFFF1E
:101DD000D2C0E1FFD3C0E2FFE7500001D419D8B46C
:101DE000D5C0E7FFE1CFD2F0E2CFD3F0D24BD32B77
:101DF000D2C0E9FFD3C0EAFFEF50D8B41200E8D751
:101E0000FFFFE6D7D400FFFFD4C0D9FFD5C0DAFF6B
:101E1000D6C004F0D7C005F0D8C006F0D9C007F08E
:101E20009A0E006EF90E016E790E026E440E036E6C
:101E3000D5EC1AF0D8A014D09A0E046EF90E056EE7
:101E4000790E066EC40E076ED6C000F0D7C001F042
:101E5000D8C002F0D9C003F0D5EC1AF0D8B032D017
:101E60000001DB51DA25006E0028E16EE150D92433
:101E7000006E000EDA20016E020E0024E96E000EE4
:101E80000120EA6E000EEF6EE150D8B40AD0E150A6
:101E9000D924E96E000EDA20EA6E2D0EEF6EE1060F
:101EA000F3D70001DA51D924006E000EDA20016E5A
:101EB0000028E96E000E0120EA6E2E0EEF6E200E55
:101EC000DF6EC8D00001D9AF06D0010EDC6FD9514A
:101ED0007F0BD96F02D00001DC6B0001DB29E16EC2
:101EE000E150D8B40ED0046A056A200E066E410E89
:101EF000076ED60EE96E000EEA6E53EC1BF0E1069B
:101F0000EFD70001DB51DA25030FDD6F0001DD5152
:101F1000D8B43BD00001DD07DDC000F0016A010E3E
:101F2000DAC002F0036A0226000E032201500318F1
:101F300002E100500218D8B4E9D70001DD51D924DC
:101F4000E16E000EDA20E26ED6C000F0D7C001F0DC
:101F5000D8C002F0D9C003F090EC1AF00A0E046E5B
:101F6000056A066A076AB7EC1AF00450300FE76E8C
:101F7000046A056A200E066E410E076ED60EE96EE3
:101F8000000EEA6E49EC1BF0C1D7DF50006ED00F97
:101F9000026E036AFF0E032203500210D8A439D048
:101FA000E16A33D0E150D924E96E000EDA20EA6EFE
:101FB000EF50006ED00F026E036AFF0E0322035033
:101FC0000210D8A40ED0E1500001DA19D8B409D01B
:101FD000E150D924E96E000EDA20EA6E200EEF6E91
:101FE00013D00001DC51D8B414D0E150D924006ED4
:101FF000000EDA20016EFF0E0024E96EFF0E0120B4
:10200000EA6E2D0EEF6E05D0E12AE1500001DA6193
:10201000C9D70001DA51D924006E000EDA20016E12
:102020000028E96E000E0120EA6E2E0EEF6EDB51E5
:10203000DAC000F0016A0026000E0122D950002605
:10204000DA500122020E0024E96E000E0120EA6E31
:10205000000EEF6A1200FFFFD7D6DA00FFFFDAC0EA
:1020600000F0DBC001F0D89001320032D89001328C
:1020700000320050BE6E0001D890DB31016EDA31C3
:10208000006E0030D8A002D0BD8A01D0BD9ADA31EE
:10209000D8A002D0BD8801D0BD981200FFFFDFD7C5
:1020A000DA00FFFFDAC000F0DBC001F0D8900132A7
:1020B0000032D890013200320050BB6E0001D8903F
:1020C000DB31016EDA31006E0030D8A002D0BA8A5E
:1020D00001D0BA9ADA31D8A002D0BA8801D0BA9821
:1020E0001200FFFFDFD7E200FFFFD96A0001E651CF
:1020F000050DD950F324006E000EF420016ED89027
:1021000000360136D89000360136000E0024E96E04
:10211000010E0120EA6EE2C0EEFFE3C0EEFFE4C074
:10212000EEFFE5C0EEFFD92A040ED964DFD7120016
:10213000FFFFDBD7D200FFFF0001D66BD76BD86B58
:10214000D96BD2C0D9FFD3C0DAFFD551D8B410D0E3
:10215000D9CFE9FFDACFEAFFEECFE2F0EECFE3F03E
:10216000EECFE4F0EECFE5F0D451E66FBDDFC7D19E
:102170000001D451140D080EF324E96E010EF42071
:10218000EA6EEECF04F0EECF05F0EECF06F0EECF24
:1021900007F0D9CFE9FFDACFEAFFEECF00F0EECFBC
:1021A00001F0EECF02F0EECF03F038EC18F000C0F3
:1021B000D6F001C0D7F002C0D8F003C0D9F0D95191
:1021C0007F0BD96FD6C004F0D7C005F0D8C006F099
:1021D000D9C007F0006A016A026A400E036ED5ECAE
:1021E0001AF0D8B02BD0D45105EE8CF0E926000EB1
:1021F000EA22EF2AD45105EE8CF0E926000EEA22FD
:10220000EF50006E020E005CD8A020D0D9CFE9FFBD
:10221000DACFEAFFEECFE2F0EECFE3F0EECFE4F07C
:10222000EECFE5F0D451E66F5FDF0001D45105EE4B
:102230008CF0E926000EEA22EF6A61D10001D45148
:1022400005EE8CF0E926000EEA22EF6A0001D45177
:10225000140D0C0EF324E16E010EF420E26ED45145
:10226000140D100EF324E96E010EF420EA6EE6CF91
:10227000EEFFE6CFEEFFE6CFEEFFE5CFEDFFED524E
:10228000ED52D451140D080EF324E16E010EF4202A
:10229000E26ED451140D0C0EF324E96E010EF420FD
:1022A000EA6EE6CFEEFFE6CFEEFFE6CFEEFFE5CF3C
:1022B000EDFFED52ED52D451140D040EF324E16EF6
:1022C000010EF420E26ED451140D080EF324E96ED1
:1022D000010EF420EA6EE6CFEEFFE6CFEEFFE6CF8A
:1022E000EEFFE5CFEDFFED52ED52D451140D000E8F
:1022F000F324E16E010EF420E26ED451140D040EAD
:10230000F324E96E010EF420EA6EE6CFEEFFE6CF8D
:10231000EEFFE6CFEEFFE5CFEDFFED52ED52D9CF68
:10232000E9FFDACFEAFFD451140D000EF324E16E79
:10233000010EF420E26EEECFE6FFEECFE6FFEECF29
:10234000E6FFEDCFE5FFE552E552D451140D080E3E
:10235000F324E96E010EF420EA6EEECF04F0EECF26
:1023600005F0EECF06F0EECF07F0080EF66E060E83
:10237000F76E0900FFFFF5CF00F00900FFFFF5CF72
:1023800001F00900FFFFF5CF02F00900FFFFF5CFD4
:1023900003F0BBEC18F000C0DAF001C0DBF002C0C3
:1023A000DCF003C0DDF0D451140D0C0EF324E96E03
:1023B000010EF420EA6EEECF04F0EECF05F0EECF82
:1023C00006F0EECF07F0D451140D040EF324E96E9D
:1023D000010EF420EA6EEECF00F0EECF01F0EECF6A
:1023E00002F0EECF03F03AEC18F0040EF66E060E93
:1023F000F76E0900FFFFF5CF04F00900FFFFF5CFEE
:1024000005F00900FFFFF5CF06F00900FFFFF5CF4B
:1024100007F0BBEC18F000C0DEF001C0DFF002C036
:10242000E0F003C0E1F0D451140D100EF324E96E76
:10243000010EF420EA6EEECF04F0EECF05F0EECF01
:1024400006F0EECF07F0D451140D000EF324E96E20
:10245000010EF420EA6EEECF00F0EECF01F0EECFE9
:1024600002F0EECF03F03AEC18F0000EF66E060E16
:10247000F76E0900FFFFF5CF04F00900FFFFF5CF6D
:1024800005F00900FFFFF5CF06F00900FFFFF5CFCB
:1024900007F0BBEC18F0DEC004F0DFC005F0E0C0D0
:1024A00006F0E1C007F03AEC18F0DAC004F0DBC047
:1024B00005F0DCC006F0DDC007F03AEC18F000C013
:1024C000DEFF01C0DEFF02C0DEFF03C0DDFFDD5224
:1024D000DD52D9CFE9FFDACFEAFFD451140D080E4F
:1024E000F324E16E010EF420E26EEECFE6FFEECFB4
:1024F000E6FFEECFE6FFEDCFE5FFE552E552120035
:10250000FFFF1AD6FFFFAC94070EAF6EAC8AAB8804
:10251000AB8E1200FFFFF7D7FFFFAD6EACB212001B
:10252000FDD7FFFFFAD7FFFF9EBA02D000F0FCD71D
:10253000AE501200FFFFF8D7FFFF0501976BF36A5B
:10254000F46A00F09EBA0FD0F30EE96E0F0EEA6E39
:10255000EE2A000EED22EE52270EED5C100ED8B4DE
:10256000EF5CD8A0EED79EAA02D0DDDF04D0010E2A
:10257000E8CF97F5000E1200FFFFDFD7D200FFFF74
:10258000D2C0F6FFD3C0F7FF050EF76404D00800F1
:10259000FFFFF55005D0F6CFE9FFF7CFEAFFEF5088
:1025A0000009D8B416D00001D2C0F6FFD3C0F7FF9F
:1025B000D22B000ED323050EF76404D00800FFFFD2
:1025C000F55005D0F6CFE9FFF7CFEAFFEF50A4DFD3
:1025D000D7D71200FFFFD4D7FD00FFFFFDC0E9FFF2
:1025E000FEC0EAFFFF0EEE68ED681200FFFFF6D7AF
:1025F000D200FFFFD2C0E9FFD3C0EAFFFF0EEE68B2
:10260000ED681200FFFFF6D7D200FFFFD2C0E1FF56
:10261000D3C0E2FF0001D451E61A000EE51AD96AD0
:10262000E750010BE96EE6CF00F0E5CF01F0D8905E
:102630000130036E0030026E02C0E6FF03C0E5FF0A
:10264000E950D8B404D0010EE61AA00EE51AD92A32
:10265000070ED964E5D70001D4511200FFFFD6D789
:10266000FD00FFFFFDC0E1FFFEC0E2FF0001FF51E2
:10267000E61A000EE51AD96AE750010BE96EE6CFBB
:1026800000F0E5CF01F0D8900130036E0030026E0B
:1026900002C0E6FF03C0E5FFE950D8B404D0010E44
:1026A000E61AA00EE51AD92A070ED964E5D700016B
:1026B000FF511200FFFFD6D7D200FFFF0001D20E5C
:1026C000FD6F000EFE6F89DFF36AD2C0E1FFD3C059
:1026D000E2FF0001D451F35CD8B00ED00001D20E5D
:1026E000FD6F000EFE6FE6CFFFF0E1CFD2F0E2CF3C
:1026F000D3F0B7DFF32AE9D7E1CFE9FFE2CFEAFF72
:10270000E14AE22A0001D351EF6ED2C0E7FFD2C006
:1027100000F0D3C001F01200FFFFD0D7D200FFFFBE
:102720000001D20EFD6F000EFE6F57DFF36AD2C0BC
:10273000E1FFD3C0E2FF0001D451F35CD8B00ED06A
:102740000001D20EFD6F000EFE6FE6CFFFF0E1CF6D
:10275000D2F0E2CFD3F085DFF32AE9D7E1CFE9FF6A
:10276000E2CFEAFFE14AE22A0001D351EF6ED2C084
:10277000E7FFD2C000F0D3C001F01200FFFFD0D7B6
:10278000F800FFFF0001FB0EFD6F000EFE6F25DF5E
:10279000F36AF8C0E1FFF9C0E2FF0001FA51F35C0F
:1027A000D8B00ED00001FB0EFD6F000EFE6FE6CF1D
:1027B000FFF0E1CFF8F0E2CFF9F053DFF32AE9D7E9
:1027C000E1CFE9FFE2CFEAFFE14AE22AEF50006EF3
:1027D0000001FC19D8A406D0E750FB19D8A402D0F8
:1027E000010E01D0000E1200FFFFCCD7D200FFFF78
:1027F0000001D20ED26F000ED36FFBDEF36AD2C09F
:10280000E1FFD3C0E2FF0001D451F35CD8B00ED099
:102810000001D20ED26F000ED36FE6CFD4F0E1CF1D
:10282000D2F0E2CFD3F0F1DEF32AE9D7E1CFE9FF2E
:10283000E2CFEAFFE14AE22AEF50006E0001D3192D
:10284000D8A40DD0E1CFE9FFE2CFEAFFE14AE22AC6
:10285000EF50D219D8A403D000F0010E02D000F03E
:10286000000E1200FFFFC4D7FB00FFFF0001FC5168
:1028700053DE0001FB5150D6FFFFF8D7D200FFFF17
:102880000001D35149DE0001D25146D6FFFFF8D7EF
:10289000FFFF8D8404000400040004000400040011
:1028A0008D941200FFFFF5D7FFFFF36AF46A04006E
:1028B0008A6A8D928D948D8093680001466B476B78
:1028C0008D84040004008150800BD96E8D9400012A
:1028D000462B000E4723070E475DD10ED8B4465D48
:1028E000D8A003D0010EF36EF46AD950D8B404D046
:1028F000F450F310D8B4E4D7936A8D928D948D90F0
:102900001200FFFFD2D7FFFFE96E000EF2BE010EEC
:10291000E16EF29EC9DF936A8D928D948D90E9509D
:102920008A6EB6DFE1CF00F0016AF29E00B0F28E4F
:102930001200FFFFE9D7FFFF000EF2BE010ED96EB5
:10294000F29E8A6A93688D80040004008D840400DE
:10295000040004008150E16E04008D940400D9CF7E
:1029600000F0016AF29E00B0F28EE1501200FFFF0B
:10297000E3D7FFFF640E9CEC17F0936A380E8A6E63
:102980009694969296908D928D948D900001D46B32
:10299000640E9CEC17F07CDF0001D42B030ED46591
:1029A000F7D70E0EB0DF060EAEDF0C0EACD7FFFF72
:1029B000E1D7D400FFFF026E000EF2BE010E036EDF
:1029C000F29E10D00250800F9EDF15D00250C00F33
:1029D0009ADF11D00250900F96DF0DD00250D00F29
:1029E00092DF09D00001D451EDE0010AEFE0030AC3
:1029F000F1E0010AF3E003C000F0016AF29E00B0CA
:102A0000F28E1200FFFFD7D7FFFFE96E000EF2BE75
:102A1000010EE16EF29E04008D92936A45DF8D8275
:102A20008D948D90E9508A6E33DF8A6A8D92E1CF62
:102A300000F0016AF29E00B0F28E04001200FFFF67
:102A4000E4D7D400FFFFD4C0F6FFD5C0F7FF050ED2
:102A5000F76404D00800FFFFF55005D0F6CFE9FF7A
:102A6000F7CFEAFFEF500009D8B416D00001D4C068
:102A7000F6FFD5C0F7FFD42B000ED523050EF76463
:102A800004D00800FFFFF55005D0F6CFE9FFF7CFDF
:102A9000EAFFEF50B9DFD7D71200FFFFD4D7D40039
:102AA000FFFF05D0010EB0DF0001D44BD52BD4C001
:102AB000F6FFD5C0F7FF050EF76404D00800FFFF4E
:102AC000F55005D0F6CFE9FFF7CFEAFFEF50000948
:102AD000D8B424D0D4C0F6FFD5C0F7FF050EF764F4
:102AE00004D00800FFFFF55005D0F6CFE9FFF7CF7F
:102AF000EAFFEF50400AD6E0D4C0F6FFD5C0F7FF9A
:102B0000050EF76404D00800FFFFF55005D0F6CF9E
:102B1000E9FFF7CFEAFFEF5077DFC6D71200FFFFDC
:102B2000C0D7FFFF0001D56B480ED46F0001D42B36
:102B3000D405E9DE04000001D52BD505006E00C0E8
:102B400002F0036A02500C0FF66E0350F76E060E89
:102B5000F7220800FFFFF55057DF0400D5C000F052
:102B6000016A00500C0FF66E0150F76E060EF72248
:102B70000800FFFFF550D8B41200D8D7FFFFD2D716
:102B8000FFFFD96E0400000EF2BE010EE8CF95F5EE
:102B9000F29ED950C96E00F0C7A0FDD7C9CF96F5F7
:102BA00095C500F00030F29ED8B0F28E96C5E8FFD1
:102BB0001200FFFFE6D7FFFF928A640E9CEC17F02D
:102BC0008B80640E9CEC17F08B90640E9CEC17F0DD
:102BD0008B80640E9CEC17F0FA0E9CEC17F0FF0E45
:102BE000CFDFFF0ECDDFFF0ECBDFFF0EC9DF200EE4
:102BF000C7DF040EC5D7FFFFDFD7FFFFE16E04007C
:102C0000100EBEDFE150BCDF00F080BAFDD7380EF9
:102C1000B7DF000EB5DF0001D86F000EB1DF000195
:102C2000D76F0400D7C000F0D8C001F01200FFFF3A
:102C3000E5D7FFFF0001D26FD251DFDF00C0F6FF02
:102C400001C0F7FFD2C001F0380E0116030E006E6E
:102C5000D8900132002EFCD7010E006E012A02D05E
:102C6000D8900036012EFCD700500001D26FD2C0A0
:102C700000F0EFEC02F000C0D3F001C0D4F002C0CD
:102C8000D5F003C0D6F0F6CF00F0F7CF01F01AEC84
:102C90001BF0D3C004F0D4C005F0D5C006F0D6C0F8
:102CA00007F001EC1AF04AD0FFFFC4D7FFFF000184
:102CB000D26FD251A2DF00C0F6FF01C0F7FFD2C031
:102CC00001F0380E0116030E006ED8900132002E6E
:102CD000FCD7010E006E012A02D0D8900036012EDA
:102CE000FCD700500001D26FD2C000F0EFEC02F030
:102CF00000C0D3F001C0D4F002C0D5F003C0D6F0BC
:102D0000F6CF00F0F7CF01F01AEC1BF0046A056A69
:102D1000066A470E076E38EC18F0046A056A066A00
:102D2000400E076EBBEC18F0D3C004F0D4C005F021
:102D3000D5C006F0D6C007F001EC1AF0046A0568A9
:102D40007F0E066E470E076E01EF1AF0FFFFAFD73A
:102D5000FFFF2CD8EE50126EEE50EECFFAFFEECF02
:102D6000FBFFF96E1200FFFFF4D7FFFF1FD8FDCF66
:102D7000ECFFFECFECFFFFCFECFF12860600120047
:102D8000FFFFF4D7136A01D01368FFFF11900ED82C
:102D9000FDCFECFFFECFECFFFFCFECFF129612A8A9
:102DA000129A13B0128A1200FFFFF0D7FFFF1050E3
:102DB000E96EEA6A1200D600FFFF129A1298F6DF57
:102DC0001250EF6E0001D751D611D8B411D0D61FD2
:102DD000D71FD64BD72B1050050FE96EEA6AD6C025
:102DE000EEFFD7C0EDFF12881286E0DF1250EF6EC3
:102DF0001200FFFFE2D7FFFFF250C00BF29ED0BEE1
:102E0000F29C1200FFFFFFFFE8BEF28ED0BEE8ACDE
:102E100001D0F28C1200FFFFFFFF0001D46F119A66
:102E2000C5DF0001D451D8B403D01298EF9806D072
:102E300012A812AA02D0118A01D006001200FFFFC8
:102E4000ECD7FFFF116A0F6A2A0E106E159C1C9CAE
:102E5000239C2A9C1200FFFFF5D7FFFF000115B845
:102E60001A3E02D01B4A15981CB8213E02D0224AB5
:102E70001C9823B8283E02D0294A23982AB82F3E0E
:102E800002D0304A2A981200FFFFE8D7D200FFFF95
:102E9000E16E1192150ED96E136AD950E96EEA6A85
:102EA000EF50006E00BC1FD0E18CE186D928E96E9E
:102EB000EA6AD2C0EEFFD3C0EEFFD4C0EEFFD5C0A9
:102EC000EEFFD950050FE96EEA6AEE6AED6AD95055
:102ED000E96EEA6AE1CFEFFF1050D96202D0E1500B
:102EE000126E119207D0070ED926132A030E13640F
:102EF000D4D711821200FFFFCBD7D200FFFF000111
:102F0000D351D96E0BD0D906FD0EE8CF94F505014B
:102F100000F000F0942F88EF17F000F0010ED96058
:102F2000F2D7D2C094F5050100F000F0942F94EF91
:102F300017F01200FFFFE3D7FFFFE16E040ED96E1A
:102F4000FA0EE8CF94F5050100F000F0942FA4EFFD
:102F500017F000F0D92EF4D7E12EF0D71200FFFFC2
:102F6000ECD7FFFFE16E040ED96EFA0EE8CF94F5B0
:102F7000050100F000F0942FB9EF17F0D92EF5D726
:102F8000E12EF1D71200FFFFEDD7D200FFFF040EB4
:102F9000D96EFA0EE8CF94F5050100F000F0942FF9
:102FA000CDEF17F000F0D92EF4D7D20EE96E000E57
:102FB000EA6EEE06000EED5AEE50ED10D8B4120097
:102FC000E6D7FFFFE4D7FFFFF36E040EE96EFA0EBB
:102FD000B3DF00F0E92EFBD7F32EF7D71200FFFF87
:102FE000F3D7FFFFF36E040EE96EFA0EBADF00F0BE
:102FF000E92EFBD7F32EF7D71200FFFFF3D70C50C3
:103000000D5C1BE3E80F06E3026A016A006A0D50DB
:103010000C6E12000C500D5CFCE0F80F08E3080E7B
:103020000C260150006E0250016E026AF3D7033283
:103030000232013200320C2AEDD70D500C5CE80F41
:1030400004E3066A056A046A12000D500C5CE1E0B4
:10305000F80F08E3080E0D260550046E0650056EA5
:10306000066AF3D707320632053204320D2AEDD74D
:10307000800E071AE96AEA6A13EC19F021EC19F0DC
:10308000BEDF0EB02BEC1BF00EA209D0041E051EF5
:10309000061E071E000E042A0522062207220450DF
:1030A00000260550012206500222075003220E6A14
:1030B00003AE3DEF19F02BEC1BF00E803DEF19F045
:1030C000E96AEA6A0C6A086A096A0A6A0B6A0450C1
:1030D00005100610071006E1046A056A066A076A09
:1030E000F3EF1AF0C00E0C1606D0D8900436053651
:1030F000063607360C2A07AEF8D70C2AD8900836C1
:1031000009360A360B360750035C08E10650025CAC
:1031100005E10550015C02E10450005C09E3088010
:103120000450005E0550015A0650025A0750035AD7
:10313000D89007320632053204320C060C503F0B91
:10314000DDE10CBC2BEC1BF00050046E0150056E51
:103150000250066E0350076E0850006E0950016E53
:103160000A50026E0B50036E0CAEF7EF1AF02BEC08
:103170001BF0F7EF1AF0E96AEA6A13EC19F021EC98
:1031800019F0086A096A0A6A0B6A070E076ED89076
:1031900006320532043208E30050082601500922A5
:1031A00002500A2203500B22D89000360136023614
:1031B0000336072EECD7110E076E05D0D8900B32D0
:1031C0000A3209320832D89006320532043208E356
:1031D000005008260150092202500A2203500B22F7
:1031E000072EECD70E300E1A0850006E0950016EF3
:1031F0000A50026E0B50036E329632B232860C5277
:103200000BE00D5009E00C26860ED8A007D00C5E0E
:10321000D8B032803DEF19F01CEF19F00C5ED8A049
:1032200032823DEF19F00E6A023403340C6E04E072
:103230000E36036A028E1200006A016A026A036A8D
:10324000000C0E92063407340D6E05E0D8B00E82E5
:10325000076A068E12000D6A046A056A066A076A22
:1032600012000C4832800C50E7E0029E0E320C3007
:10327000036ED8B0028EF7EF1AF00C5224E0035020
:1032800012E0030404E1002A012202220322D89062
:1032900003320232013200320C2AEFE10350EDE03A
:1032A00032A63292EED700500110021003100BE04C
:1032B00002BED7D70C2E02D03282D7D7D890003694
:1032C00001360236F5D7F3EF1AF0D200FFFF000106
:1032D000D607D629D8B41FD065EC1BF00001D25117
:1032E000D625A96ED651D425E96E000ED521EA6EF9
:1032F000EF50A86E3F0EA616D890F2BED880F29E70
:10330000A684550EA76EAA0EA76EA682A198A694B3
:10331000D8B0F28EDCD71200FFFFD9D7F300FFFF41
:103320000001F707F729D8B41DD065EC1BF00001A8
:10333000F351F725A96EF2AE02D0D88001D0D89013
:10334000F29E3F0EA616A680A850A96EF29ED8B097
:10335000F28EF751F525E96E000EF621EA6EA9CF3F
:10336000EFFFDED71200FFFFDBD7086A013402341B
:10337000066E04E00836026A018E1200006A016AD5
:10338000026A000C089204340534076E05E0D8B0D8
:103390000882056A048E1200076A036A046A056AD5
:1033A0001200064832800650E9E0019E08320630DD
:1033B000026ED8B0018E2FEF00F0065220E00250CE
:1033C00010E0020403E1002A01220222D890023216
:1033D00001320032062AF1E10250EFE032A63292C9
:1033E000F0D70050011002100AE001BEDAD7062E15
:1033F00002D03282DAD7D89000360136F6D72CEFD9
:1034000000F0E96AEA6A13EC19F021EC19F0086A95
:10341000096A0A6A0B6A329632B232860C5203E0AB
:103420000D5002E1328412000C5E770ED8A004D059
:103430000C26D8B0328003D00C26D8A032820E30B1
:103440000E1A200E076ED890083609360A360B364B
:10345000036609D00650025C05E10550015C02E1FB
:103460000450005C09E30450005E0550015A065008
:10347000025AD8A003060880D890003601360236DA
:103480000336072EE0D70850006E0950016E0A502F
:10349000026E0B50036E3DEF19F0E96AEA6A0050C4
:1034A000086E0150096E02500A6E03500B6E026ADC
:1034B000036A08500402F3CF00F0F4CF01F00502D4
:1034C000F3500126F450022209500402F350012661
:1034D000F4500222D8B0032A08500602F350022604
:1034E000F450032209500502F3500226F45003223F
:1034F0000A500402F3500226F45003220850070237
:10350000F350032609500602F35003260A50050221
:10351000F35003260B500402F3500326F7EF1AF082
:10352000E96AEA6A13EC19F0820E0C260CBE1CEF55
:1035300019F0E80E0C260CBE12D0200E0C5CD8B090
:103540001CEF19F00C52D8B406D00C060036013628
:1035500002360336F7D70EB02BEC1BF01200D890D2
:1035600003320232013200320C3EF9D7F4D7E96A55
:10357000EA6A0C6A03AE04D02BEC1BF00C8C0C8EA8
:103580000750800B0C1A07AE63EF18F0D890FF0EAF
:103590000406041ED8A00526051ED8A00626061E71
:1035A000D8A00726071E63EF18F003500718800BFA
:1035B00004E00734075001091200039E07507F0BF7
:1035C000035C0AE10650025C07E10550015C04E17E
:1035D0000450005CD8B412000734D8B0010A076E5A
:1035E000073002091200036A026A016A006AE950A0
:1035F000EA1008E003C0EDFF02C0EDFF01C0EDFFDF
:1036000000C0EFFF000C0E6A03AE03D00E802BEC5F
:103610001BF0960E0C6EE96AEA6A3DEF19F00E6A2D
:10362000F8D7026A036A01AE03EF1BF00206030635
:1036300003EF1BF00E6A026A036A0FEF1BF0800EA5
:10364000071AEECF00F0EECF01F0EECF02F0EFCF91
:1036500003F03CEF18F0001E011E021E031E000EB8
:10366000002A0122022203221200EECF00F0EECF48
:1036700001F0EECF02F0EFCF03F062EF18F0EECFE3
:1036800000F0EECF01F0EECF02F0EFCF03F04FEFFE
:103690001AF0EECF00F0EECF01F0EECF02F0EFCF58
:1036A00003F003EF1AF0EECF00F0EECF01F0EECF13
:1036B00002F0EFCF03F0BDEF18F0EE6AEA50E262DD
:1036C000FCD7E950E162F9D71200FFFFA6A2120071
:0A36D000FDD7FFFFFBD7039E000C9F
:020000040030CA
:020006007BFF7E
:02000A00FFFFF6
:0200000400F00A
:100000000050C345000000000000803F0000803F1A
:100010000000803F0000803F0000803F0000803FE4
:100020000000803F0000803F000000000000000052
:1000300000000000000000000000000000000000C0
:100040000000000000000000CDCC4C3F0AD7A33CCC
:100050000000000000009841C3B57AC31EE1743E61
:100060006D43423771000000C842000000000000EC
:100070000000000000000000000000000000000080
:100080000000000000000000000000000000000070
:100090000000000000000000000000000000000060
:1000A0000000000000000000000000000000000050
:1000B0000000000000000000000000000000000040
:1000C0000000000000000000000000000000000030
:1000D0000000000000000000000000000000000020
:1000E0000000000000000000000000000000000010
:1000F0000000000000000000000000000000000000
:100100000050C345000000000000803F0000803F19
:100110000000803F0000803F0000803F0000803FE3
:100120000000803F0000803F000000000000000051
:1001300000000000000000000000000000000000BF
:100140000000000000000000CDCC4C3F0AD7A33CCB
:100150000000000000009841C3B57AC31EE1743E60
:100160006D43423771000000C842000000000000EB
:10017000000000000000000000000000000000007F
:10018000000000000000000000000000000000006F
:10019000000000000000000000000000000000005F
:1001A000000000000000000000000000000000004F
:1001B000000000000000000000000000000000003F
:1001C000000000000000000000000000000000002F
:1001D000000000000000000000000000000000001F
:1001E000000000000000000000000000000000000F
:1001F00000000000000000000000000000000000FF
:020000040000FA
:00000001FF
